:100000000C9463000C948B000C948B000C948B006C
:100010000C948B000C948B000C948B000C948B0034
:100020000C948B000C948B000C948B000C94CB01E3
:100030000C948B000C948B000C948B000C948B0014
:100040000C948C030C948B000C94A5040C948B00E2
:100050000C948B000C948B000C948B000C948B00F4
:100060000C948B000C948B000000000024002700EF
:100070002A0000000000250028002B0000000000DE
:1000800023002600290004040404040404040202DA
:100090000202020203030303030301020408102007
:1000A0004080010204081020010204081020000012
:1000B0000007000201000003040600000000000029
:1000C000000088022A0611241FBECFEFD8E0DEBF51
:1000D000CDBF11E0A0E0B1E0E6EFFEE002C0059088
:1000E0000D92A031B107D9F711E0A0E1B1E001C054
:1000F0001D92A23FB107E1F710E0C6ECD0E004C0CA
:100100002297FE010E947507C23CD107C9F70E94E1
:1001100085030C9479070C940000FC018091100178
:100120008C3090F480838F5F80931001815090E039
:10013000FC01EE0FFF1FE80FF91FEF5EFE4F88EB8B
:100140009BE09283818308958FEF80830895FC0163
:1001500020812C30C0F58181992787FD909548E852
:1001600050E0481B590B440F551F440F551F64178F
:10017000750784F08281992787FD909548E552E0C4
:10018000481B590B440F551F440F551F6417750723
:100190000CF4AB01CA01AA2797FDA095BA2F0697C8
:1001A000A109B109880F991FAA1FBB1F4FB7F89467
:1001B00030E0F901EE0FFF1FE20FF31FEF5EFE4F7D
:1001C000928381834FBF0895AF92BF92CF92DF9207
:1001D000EF92FF920F931F93CF93DF93EC019B015C
:1001E00082E0603278070CF048C077FF03C020E05F
:1001F00030E005C0653B710514F024EB30E000D021
:1002000000D0B901882777FD8095982F2981332761
:1002100027FD3095B8E8AB2EB12CA21AB30AAA0C70
:10022000BB1CAA0CBB1CCC24B7FCC094DC2CEA8100
:10023000FF27E7FDF09528E532E02E1B3F0B220F4C
:10024000331F220F331F442737FD4095542FEDB73E
:10025000FEB7218332834383548320E030E040E0C3
:1002600050E0E4EBEE2EF12C012D112D0E949B06A7
:100270009B010F900F900F900F90CE01B9010E943B
:10028000A700DF91CF911F910F91FF90EF90DF902A
:10029000CF90BF90AF900895CF92DF92EF92FF92F0
:1002A0001F93CF93DF93EC01162F7A0169018881A8
:1002B0008C3008F064C0862F61E00E943804888189
:1002C00090E0FC01EE0FFF1FE80FF91FEF5EFE4FFD
:1002D0001F738081807C812B808380E292E08E1965
:1002E0009F0964E070E00E940F07698380E699E04F
:1002F0008C199D0964E070E00E940F076A83A88151
:100300008A2F6CE00E940307682F70E0AB01440F56
:10031000551F460F571F440F551F440F551F20E010
:1003200030E0C901840F951FFC01EE0FFF1FE80F9D
:10033000F91FEF5EFE4F808186FD15C02F5F3F4F96
:100340002C30310571F724C01092800082E0809338
:1003500081001092850010928400B19A80916F0004
:10036000826080936F008A2F90E0FC01EE0FFF1FE8
:10037000E80FF91FEF5EFE4F8081806480838881E3
:10038000DF91CF911F91FF90EF90DF90CF90089574
:10039000672BD1F2E8CF1F920F920FB60F92112464
:1003A0002F933F934F935F936F937F938F939F937D
:1003B000AF93BF93EF93FF938091350187FF05C003
:1003C00010928500109284002BC0209135013327B4
:1003D00027FD30958091100190E02817390704F52A
:1003E00080913501992787FD9095FC01EE0FFF1F45
:1003F000E80FF91FEF5EFE4F808186FF11C08091EC
:100400003501992787FD9095FC01EE0FFF1FE80F3E
:10041000F91FEF5EFE4F80818F7360E00E945804E9
:10042000809135018F5F809335012091350133270D
:1004300027FD30958091100190E0281739070CF0C6
:100440004EC0809135018C300CF049C02091840061
:100450003091850080913501992787FD9095FC01A9
:10046000EE0FFF1FE80FF91FEF5EFE4F81819281B3
:10047000280F391F3093890020938800809135011F
:10048000992787FD9095FC01EE0FFF1FE80FF91FDC
:10049000EF5EFE4F808186FF2AC08091350199274B
:1004A00087FD9095FC01EE0FFF1FE80FF91FEF5E2F
:1004B000FE4F80818F7361E00E94580418C080E471
:1004C0009CE905C0809184009091850004969093EA
:1004D0008900809388008FEF8093350108C0809158
:1004E00084009091850084549C4948F3EBCFFF91A0
:1004F000EF91BF91AF919F918F917F916F915F919C
:100500004F913F912F910F900FBE0F901F90189514
:1005100086E391E00E948D0089E391E00E948D00C6
:100520008CE391E00E948D008FE391E00E948D00AA
:10053000089586E391E06AE570E00E94E40089E3B3
:1005400091E06AE570E00E94E4008CE391E06AE5E6
:1005500070E00E94E4008FE391E06AE570E00E94A1
:10056000E4000895CF93DF938FED91E00E94DB05C7
:10057000833008F463C08FED91E00E94EF05909303
:100580004901809348018F3F910509F06FC0109297
:100590004F0110924E0113C08FED91E00E94EF05C4
:1005A000CC0FDD1FCE5BDE4F9983888380914E0197
:1005B00090914F01019690934F0180934E01C0910D
:1005C0004E01D0914F01C230D10534F380914201E8
:1005D0009091430190934B0180934A0160914401B3
:1005E0007091450170934D0160934C016F3F71050F
:1005F00021F470934B0160934A0180914A019091DC
:100600004B018230910579F0833091051CF40197FC
:1006100069F506C08330910559F0049739F50BC090
:1006200086E391E002C089E391E00E94E4001EC0ED
:100630008CE391E0FACF8FE391E0F7CF6AE070E0CE
:1006400080E090E00E94D40380915001909151018C
:10065000019690935101809350018A35910534F0B1
:100660000E9499021092510110925001DF91CF9196
:1006700008954091000150910101209102013091B3
:10068000030186E391E063E070E00E944C01409139
:10069000000150910101209102013091030189E391
:1006A00091E065E070E00E944C01409100015091A2
:1006B000010120910201309103018CE391E066E099
:1006C00070E00E944C014091000150910101209185
:1006D0000201309103018FE391E069E070E00E9434
:1006E0004C018091040161E00E9438048FED91E09B
:1006F00040E052EC61E070E00E94E204109251018F
:10070000109250010E94990208950E94FE030E94D7
:1007100039030E94B202FDCF1F920F920FB60F92C3
:1007200011242F933F938F939F93AF93BF93809107
:10073000560190915701A0915801B0915901309103
:100740005A010196A11DB11D232F2D5F2D3720F0D9
:100750002D570196A11DB11D20935A01809356017A
:1007600090935701A0935801B09359018091520181
:1007700090915301A0915401B09155010196A11D92
:10078000B11D8093520190935301A0935401B093F3
:100790005501BF91AF919F918F913F912F910F90F4
:1007A0000FBE0F901F901895EF92FF920F931F931B
:1007B0007B018C018FB7F8944091560150915701FD
:1007C00060915801709159018FBF2FB7F8948091B3
:1007D000560190915701A0915801B09159012FBF36
:1007E000841B950BA60BB70BE816F9060A071B0727
:1007F00060F71F910F91FF90EF900895789484B562
:10080000826084BD84B5816084BD85B5826085BD0C
:1008100085B5816085BDEEE6F0E0808181608083F2
:10082000E1E8F0E080818260808380818160808364
:10083000E0E8F0E0808181608083E1EBF0E080819E
:1008400084608083E0EBF0E0808181608083EAE770
:10085000F0E08081846080838081826080838081F9
:10086000816080838081806880831092C1000895B8
:10087000282F30E0C90186569F4FFC0194912A57DA
:100880003F4FF9018491882391F0E82FF0E0EE0FBB
:10089000FF1FE859FF4FA591B491662329F48C916D
:1008A000909589238C9308958C91892B8C9308952E
:1008B000482F50E0CA0182559F4FFC012491CA0184
:1008C00086569F4FFC0194914A575F4FFA0134912D
:1008D0003323D1F1222331F1233021F480918000A0
:1008E0008F7705C0243031F4809180008F7D809314
:1008F000800018C0213019F484B58F7704C02230ED
:1009000021F484B58F7D84BD0DC0263021F4809103
:10091000B0008F7705C0273029F48091B0008F7D1B
:100920008093B000E32FF0E0EE0FFF1FEE58FF4F73
:10093000A591B491662329F48C91909589238C9389
:1009400008958C91892B8C9308951F920F920FB666
:100950000F9211242F933F934F935F936F937F9345
:100960008F939F93AF93BF93EF93FF934091C600F4
:10097000E091DB01F091DC01CF01019660E870E0CD
:100980000E940F079C018091DD019091DE012817E4
:10099000390739F0E55AFE4F40833093DC0120934C
:1009A000DB01FF91EF91BF91AF919F918F917F916B
:1009B0006F915F914F913F912F910F900FBE0F90CC
:1009C0001F9018955F926F927F928F929F92AF9235
:1009D000BF92CF92DF92EF92FF920F931F93CF932C
:1009E000DF93EC013A014B01413482E458078FE078
:1009F000680780E078070CF07FC060E874E88EE15B
:100A000090E0A40193010E944407215030404040EF
:100A10005040CA01B90122E030E040E050E00E94BD
:100A2000440759016A01A60195012095309540952A
:100A3000509594E0220F331F441F551F9A95D1F70C
:100A400060E074E284EF90E00E944407CA01B901BB
:100A50002FEF30E040E050E00E94E406A401930153
:100A60000E944407C90181509F4F181619061CF4B3
:100A7000522E5A9403C055245394521A60E079E0E0
:100A80008DE390E0A40193010E944407215030407F
:100A900040405040CA01B90122E030E040E050E05F
:100AA0000E944407209530954095509583E0220F91
:100AB000331F441F551F8A95D1F760E074E284EF1D
:100AC00090E00E944407CA01B9012FEF30E040E0F6
:100AD00050E00E94E406A40193010E944407C9016A
:100AE00081509F4F181619061CF4822F815002C0A6
:100AF00081E0821B851500F5E885F98581E090E0AD
:100B00000A8802C0880F991F0A94E2F7808360E088
:100B100079E08DE390E0A40193010E944407215005
:100B2000304040405040CA01B90122E030E040E08E
:100B300050E00E94440704C0E885F98510829501C1
:100B4000EC81FD813083EE81FF812083EA85FB8586
:100B5000208141E050E0CA010E8402C0880F991F35
:100B60000A94E2F7282B2083EA85FB852081CA01BD
:100B70000F8402C0880F991F0A94E2F7282B208364
:100B8000EA85FB858081088802C0440F551F0A94BE
:100B9000E2F7842B8083DF91CF911F910F91FF901B
:100BA000EF90DF90CF90BF90AF909F908F907F900D
:100BB0006F905F900895DC011296ED91FC91139770
:100BC000E058FF4F8191919180589F4F2081318152
:100BD000821B930B60E870E00E940F070895CF938B
:100BE000DF93DC011296ED91FC911397EF01CE5744
:100BF000DF4F48815981E058FF4F80819181E05853
:100C0000F0408417950719F42FEF3FEF0CC0E40F65
:100C1000F51F2081CA01019660E870E00E940F076D
:100C20009983888330E0C901DF91CF910895FC0159
:100C3000A085B18521898C9190E0022E02C0959506
:100C400087950A94E2F780FFF6CF0484F585E02DBE
:100C5000608308958AE091E09093E0018093DF0142
:100C60008BE591E09093E2018093E10185EC90E0C7
:100C70009093E4018093E30184EC90E09093E6018B
:100C80008093E50180EC90E09093E8018093E70188
:100C900081EC90E09093EA018093E90186EC90E08A
:100CA0009093EC018093EB0184E08093ED0183E06D
:100CB0008093EE0187E08093EF0185E08093F0015F
:100CC00081E08093F10108950F931F93CF93DF93F9
:100CD0008C01EB0109C02196D801ED91FC910190A6
:100CE000F081E02DC801099568816623A1F7DF91A5
:100CF000CF911F910F910895EF92FF920F931F9341
:100D0000CF93DF938C017B01EA010CC0D7016D9179
:100D10007D01D801ED91FC910190F081E02DC80199
:100D200009952197209791F7DF91CF911F910F910E
:100D3000FF90EF9008952F923F924F925F926F92A3
:100D40007F928F929F92AF92BF92CF92DF92EF925B
:100D5000FF920F931F93DF93CF93CDB7DEB73B0185
:100D60004C0119012A016D897E898F89988D6A1934
:100D70007B098C099D09621A730A840A950AA401E9
:100D800093010E94E406E218F30804091509A8017A
:100D900097010E9444072A0D3B1D4C1D5D1DB901A2
:100DA000CA01CF91DF911F910F91FF90EF90DF90DB
:100DB000CF90BF90AF909F908F907F906F905F90FB
:100DC0004F903F902F900895629FD001739FF00144
:100DD000829FE00DF11D649FE00DF11D929FF00DCB
:100DE000839FF00D749FF00D659FF00D9927729F02
:100DF000B00DE11DF91F639FB00DE11DF91FBD018D
:100E0000CF0111240895991B79E004C0991F96170A
:100E100008F0961B881F7A95C9F78095089597FB6F
:100E2000092E07260AD077FD04D049D006D000202D
:100E30001AF4709561957F4F0895F6F79095819516
:100E40009F4F0895A1E21A2EAA1BBB1BFD010DC0E6
:100E5000AA1FBB1FEE1FFF1FA217B307E407F5076A
:100E600020F0A21BB30BE40BF50B661F771F881F46
:100E7000991F1A9469F760957095809590959B01DC
:100E8000AC01BD01CF01089597FB092E05260ED0B8
:100E900057FD04D0D7DF0AD0001C38F45095409598
:100EA000309521953F4F4F4F5F4F0895F6F790953E
:100EB0008095709561957F4F8F4F9F4F0895AA1B26
:100EC000BB1B51E107C0AA1FBB1FA617B70710F035
:100ED000A61BB70B881F991F5A95A9F78095909567
:100EE000BC01CD010895EE0FFF1F0590F491E02D98
:060EF0000994F894FFCF05
:100EF600580260090D0000000000170664067C0613
:00000001FF
